{
  "_format": "hh-sol-artifact-1",
  "contractName": "Nix",
  "sourceName": "contracts/Nix.sol",
  "abi": [
    {
      "inputs": [
        {
          "internalType": "contract IERC20Partial",
          "name": "_weth",
          "type": "address"
        },
        {
          "internalType": "contract IRoyaltyEngineV1Partial",
          "name": "_royaltyEngine",
          "type": "address"
        }
      ],
      "stateMutability": "nonpayable",
      "type": "constructor"
    },
    {
      "anonymous": false,
      "inputs": [
        {
          "indexed": false,
          "internalType": "address",
          "name": "token",
          "type": "address"
        },
        {
          "indexed": false,
          "internalType": "uint256",
          "name": "orderIndex",
          "type": "uint256"
        }
      ],
      "name": "OrderAdded",
      "type": "event"
    },
    {
      "anonymous": false,
      "inputs": [
        {
          "indexed": false,
          "internalType": "address",
          "name": "token",
          "type": "address"
        },
        {
          "indexed": false,
          "internalType": "uint256",
          "name": "orderIndex",
          "type": "uint256"
        }
      ],
      "name": "OrderDisabled",
      "type": "event"
    },
    {
      "anonymous": false,
      "inputs": [
        {
          "indexed": false,
          "internalType": "address",
          "name": "token",
          "type": "address"
        },
        {
          "indexed": false,
          "internalType": "uint256",
          "name": "orderIndex",
          "type": "uint256"
        },
        {
          "indexed": false,
          "internalType": "uint256",
          "name": "tradeIndex",
          "type": "uint256"
        },
        {
          "indexed": false,
          "internalType": "uint256[]",
          "name": "tokenIds",
          "type": "uint256[]"
        }
      ],
      "name": "OrderExecuted",
      "type": "event"
    },
    {
      "anonymous": false,
      "inputs": [
        {
          "indexed": false,
          "internalType": "address",
          "name": "token",
          "type": "address"
        },
        {
          "indexed": false,
          "internalType": "uint256",
          "name": "orderIndex",
          "type": "uint256"
        }
      ],
      "name": "OrderUpdated",
      "type": "event"
    },
    {
      "anonymous": false,
      "inputs": [
        {
          "indexed": true,
          "internalType": "address",
          "name": "_from",
          "type": "address"
        },
        {
          "indexed": true,
          "internalType": "address",
          "name": "_to",
          "type": "address"
        }
      ],
      "name": "OwnershipTransferred",
      "type": "event"
    },
    {
      "anonymous": false,
      "inputs": [
        {
          "indexed": false,
          "internalType": "uint256",
          "name": "tip",
          "type": "uint256"
        }
      ],
      "name": "ThankYou",
      "type": "event"
    },
    {
      "anonymous": false,
      "inputs": [
        {
          "indexed": false,
          "internalType": "address",
          "name": "token",
          "type": "address"
        },
        {
          "indexed": false,
          "internalType": "uint256",
          "name": "tokenIndex",
          "type": "uint256"
        }
      ],
      "name": "TokenAdded",
      "type": "event"
    },
    {
      "anonymous": false,
      "inputs": [
        {
          "indexed": true,
          "internalType": "address",
          "name": "token",
          "type": "address"
        },
        {
          "indexed": false,
          "internalType": "uint256",
          "name": "tokens",
          "type": "uint256"
        },
        {
          "indexed": false,
          "internalType": "uint256",
          "name": "tokenId",
          "type": "uint256"
        }
      ],
      "name": "Withdrawn",
      "type": "event"
    },
    {
      "inputs": [
        {
          "internalType": "address",
          "name": "token",
          "type": "address"
        },
        {
          "internalType": "address",
          "name": "taker",
          "type": "address"
        },
        {
          "internalType": "enum Nix.BuyOrSell",
          "name": "buyOrSell",
          "type": "uint8"
        },
        {
          "internalType": "enum Nix.AnyOrAll",
          "name": "anyOrAll",
          "type": "uint8"
        },
        {
          "internalType": "uint256[]",
          "name": "tokenIds",
          "type": "uint256[]"
        },
        {
          "internalType": "uint256",
          "name": "price",
          "type": "uint256"
        },
        {
          "internalType": "uint256",
          "name": "expiry",
          "type": "uint256"
        },
        {
          "internalType": "uint256",
          "name": "tradeMax",
          "type": "uint256"
        },
        {
          "internalType": "uint256",
          "name": "royaltyFactor",
          "type": "uint256"
        },
        {
          "internalType": "address",
          "name": "integrator",
          "type": "address"
        }
      ],
      "name": "addOrder",
      "outputs": [
        {
          "internalType": "uint64",
          "name": "orderIndex",
          "type": "uint64"
        }
      ],
      "stateMutability": "payable",
      "type": "function"
    },
    {
      "inputs": [
        {
          "internalType": "address",
          "name": "token",
          "type": "address"
        },
        {
          "internalType": "uint256",
          "name": "orderIndex",
          "type": "uint256"
        },
        {
          "internalType": "address",
          "name": "integrator",
          "type": "address"
        }
      ],
      "name": "disableOrder",
      "outputs": [],
      "stateMutability": "payable",
      "type": "function"
    },
    {
      "inputs": [
        {
          "internalType": "address[]",
          "name": "tokenList",
          "type": "address[]"
        },
        {
          "internalType": "uint256[]",
          "name": "orderIndexes",
          "type": "uint256[]"
        },
        {
          "internalType": "uint256[][]",
          "name": "tokenIdsList",
          "type": "uint256[][]"
        },
        {
          "internalType": "int256",
          "name": "netAmount",
          "type": "int256"
        },
        {
          "internalType": "uint256",
          "name": "royaltyFactor",
          "type": "uint256"
        },
        {
          "internalType": "address",
          "name": "integrator",
          "type": "address"
        }
      ],
      "name": "executeOrders",
      "outputs": [],
      "stateMutability": "payable",
      "type": "function"
    },
    {
      "inputs": [
        {
          "internalType": "address",
          "name": "token",
          "type": "address"
        },
        {
          "internalType": "uint256",
          "name": "orderIndex",
          "type": "uint256"
        }
      ],
      "name": "getOrder",
      "outputs": [
        {
          "components": [
            {
              "internalType": "address",
              "name": "maker",
              "type": "address"
            },
            {
              "internalType": "address",
              "name": "taker",
              "type": "address"
            },
            {
              "internalType": "enum Nix.BuyOrSell",
              "name": "buyOrSell",
              "type": "uint8"
            },
            {
              "internalType": "enum Nix.AnyOrAll",
              "name": "anyOrAll",
              "type": "uint8"
            },
            {
              "internalType": "uint256[]",
              "name": "tokenIds",
              "type": "uint256[]"
            },
            {
              "internalType": "uint256",
              "name": "price",
              "type": "uint256"
            },
            {
              "internalType": "uint64",
              "name": "expiry",
              "type": "uint64"
            },
            {
              "internalType": "uint64",
              "name": "tradeCount",
              "type": "uint64"
            },
            {
              "internalType": "uint64",
              "name": "tradeMax",
              "type": "uint64"
            },
            {
              "internalType": "uint64",
              "name": "royaltyFactor",
              "type": "uint64"
            }
          ],
          "internalType": "struct Nix.Order",
          "name": "order",
          "type": "tuple"
        }
      ],
      "stateMutability": "view",
      "type": "function"
    },
    {
      "inputs": [
        {
          "internalType": "uint256",
          "name": "tokenIndex",
          "type": "uint256"
        }
      ],
      "name": "getToken",
      "outputs": [
        {
          "internalType": "address",
          "name": "token",
          "type": "address"
        },
        {
          "internalType": "uint64",
          "name": "_ordersLength",
          "type": "uint64"
        },
        {
          "internalType": "uint64",
          "name": "executed",
          "type": "uint64"
        },
        {
          "internalType": "uint64",
          "name": "volumeToken",
          "type": "uint64"
        },
        {
          "internalType": "uint256",
          "name": "volumeWeth",
          "type": "uint256"
        }
      ],
      "stateMutability": "view",
      "type": "function"
    },
    {
      "inputs": [
        {
          "internalType": "uint256",
          "name": "tradeIndex",
          "type": "uint256"
        }
      ],
      "name": "getTrade",
      "outputs": [
        {
          "internalType": "address",
          "name": "taker",
          "type": "address"
        },
        {
          "internalType": "uint64",
          "name": "royaltyFactor",
          "type": "uint64"
        },
        {
          "internalType": "uint64",
          "name": "blockNumber",
          "type": "uint64"
        },
        {
          "components": [
            {
              "internalType": "address",
              "name": "token",
              "type": "address"
            },
            {
              "internalType": "uint64",
              "name": "orderIndex",
              "type": "uint64"
            }
          ],
          "internalType": "struct Nix.ExecutedOrder[]",
          "name": "executedOrders",
          "type": "tuple[]"
        }
      ],
      "stateMutability": "view",
      "type": "function"
    },
    {
      "inputs": [
        {
          "internalType": "address",
          "name": "",
          "type": "address"
        },
        {
          "internalType": "address",
          "name": "",
          "type": "address"
        },
        {
          "internalType": "uint256",
          "name": "_tokenId",
          "type": "uint256"
        },
        {
          "internalType": "bytes",
          "name": "",
          "type": "bytes"
        }
      ],
      "name": "onERC721Received",
      "outputs": [
        {
          "internalType": "bytes4",
          "name": "",
          "type": "bytes4"
        }
      ],
      "stateMutability": "nonpayable",
      "type": "function"
    },
    {
      "inputs": [
        {
          "internalType": "address",
          "name": "token",
          "type": "address"
        }
      ],
      "name": "ordersLength",
      "outputs": [
        {
          "internalType": "uint256",
          "name": "",
          "type": "uint256"
        }
      ],
      "stateMutability": "view",
      "type": "function"
    },
    {
      "inputs": [],
      "name": "owner",
      "outputs": [
        {
          "internalType": "address",
          "name": "",
          "type": "address"
        }
      ],
      "stateMutability": "view",
      "type": "function"
    },
    {
      "inputs": [],
      "name": "royaltyEngine",
      "outputs": [
        {
          "internalType": "contract IRoyaltyEngineV1Partial",
          "name": "",
          "type": "address"
        }
      ],
      "stateMutability": "view",
      "type": "function"
    },
    {
      "inputs": [
        {
          "internalType": "address",
          "name": "",
          "type": "address"
        }
      ],
      "name": "tokens",
      "outputs": [
        {
          "internalType": "address",
          "name": "token",
          "type": "address"
        },
        {
          "internalType": "uint64",
          "name": "executed",
          "type": "uint64"
        },
        {
          "internalType": "uint64",
          "name": "volumeToken",
          "type": "uint64"
        },
        {
          "internalType": "uint256",
          "name": "volumeWeth",
          "type": "uint256"
        }
      ],
      "stateMutability": "view",
      "type": "function"
    },
    {
      "inputs": [],
      "name": "tokensLength",
      "outputs": [
        {
          "internalType": "uint256",
          "name": "",
          "type": "uint256"
        }
      ],
      "stateMutability": "view",
      "type": "function"
    },
    {
      "inputs": [],
      "name": "tradesLength",
      "outputs": [
        {
          "internalType": "uint256",
          "name": "",
          "type": "uint256"
        }
      ],
      "stateMutability": "view",
      "type": "function"
    },
    {
      "inputs": [
        {
          "internalType": "address",
          "name": "_newOwner",
          "type": "address"
        }
      ],
      "name": "transferOwnership",
      "outputs": [],
      "stateMutability": "nonpayable",
      "type": "function"
    },
    {
      "inputs": [
        {
          "internalType": "address",
          "name": "token",
          "type": "address"
        },
        {
          "internalType": "uint256",
          "name": "orderIndex",
          "type": "uint256"
        },
        {
          "internalType": "address",
          "name": "taker",
          "type": "address"
        },
        {
          "internalType": "uint256[]",
          "name": "tokenIds",
          "type": "uint256[]"
        },
        {
          "internalType": "uint256",
          "name": "price",
          "type": "uint256"
        },
        {
          "internalType": "uint256",
          "name": "expiry",
          "type": "uint256"
        },
        {
          "internalType": "int256",
          "name": "tradeMaxAdjustment",
          "type": "int256"
        },
        {
          "internalType": "uint256",
          "name": "royaltyFactor",
          "type": "uint256"
        },
        {
          "internalType": "address",
          "name": "integrator",
          "type": "address"
        }
      ],
      "name": "updateOrder",
      "outputs": [],
      "stateMutability": "payable",
      "type": "function"
    },
    {
      "inputs": [],
      "name": "weth",
      "outputs": [
        {
          "internalType": "contract IERC20Partial",
          "name": "",
          "type": "address"
        }
      ],
      "stateMutability": "view",
      "type": "function"
    },
    {
      "inputs": [
        {
          "internalType": "address",
          "name": "token",
          "type": "address"
        },
        {
          "internalType": "uint256",
          "name": "tokens",
          "type": "uint256"
        },
        {
          "internalType": "uint256",
          "name": "tokenId",
          "type": "uint256"
        }
      ],
      "name": "withdraw",
      "outputs": [],
      "stateMutability": "nonpayable",
      "type": "function"
    },
    {
      "stateMutability": "payable",
      "type": "receive"
    }
  ],
  "bytecode": "0x60806040523480156200001157600080fd5b5060405162003a1d38038062003a1d8339810160408190526200003491620000b8565b600080546001600160a01b03199081163317909155600280546001600160a01b0394851690831617905560038054929093169116179055620000fb565b60006001600160a01b0382165b92915050565b60006200007e8262000071565b6200009c8162000084565b8114620000a857600080fd5b50565b80516200007e8162000091565b60008060408385031215620000d057620000d0600080fd5b6000620000de8585620000ab565b9250506020620000f185828601620000ab565b9150509250929050565b613912806200010b6000396000f3fe6080604052600436106101025760003560e01c8063c60dab1411610095578063e486033911610064578063e4860339146102d9578063e4b50cb814610344578063edb2584114610375578063f2fde38b146103a2578063f6ae8e13146103c257600080fd5b8063c60dab1414610289578063d92fc67b1461029c578063dc12ceea146102b1578063e08725d3146102c657600080fd5b80634c94c90c116100d15780634c94c90c146101fc5780638da5cb5b1461021c5780639442709514610249578063b5c5f6721461026957600080fd5b8063150b7a02146101235780632ad601c8146101595780632db25e051461019f5780633fc8cef3146101cf57600080fd5b3661011e5760005461011c906001600160a01b03166103d5565b005b600080fd5b34801561012f57600080fd5b5061014361013e36600461272b565b61049b565b60405161015091906127bb565b60405180910390f35b34801561016557600080fd5b506101926101743660046127c9565b6001600160a01b031660009081526005602052604090206001015490565b60405161015091906127f0565b3480156101ab57600080fd5b506101bf6101ba3660046127fe565b6104e6565b60405161015094939291906128be565b3480156101db57600080fd5b506002546101ef906001600160a01b031681565b6040516101509190612932565b34801561020857600080fd5b506003546101ef906001600160a01b031681565b34801561022857600080fd5b5060005461023c906001600160a01b031681565b6040516101509190612940565b61025c610257366004612a08565b6105c7565b6040516101509190612afe565b34801561027557600080fd5b5061011c610284366004612b0c565b610a7e565b61011c610297366004612b5c565b610cc2565b3480156102a857600080fd5b50600454610192565b3480156102bd57600080fd5b50600654610192565b61011c6102d4366004612ca8565b610deb565b3480156102e557600080fd5b506103346102f43660046127c9565b6005602052600090815260409020805460038201546004909201546001600160a01b03909116916001600160401b0380821692600160401b909204169084565b6040516101509493929190612d7f565b34801561035057600080fd5b5061036461035f3660046127fe565b6118b3565b604051610150959493929190612dbd565b34801561038157600080fd5b50610395610390366004612dff565b611929565b6040516101509190612f9d565b3480156103ae57600080fd5b5061011c6103bd3660046127c9565b611b14565b61011c6103d0366004612fb5565b611b99565b34156104985760006001600160a01b0382161580159061040357506000546001600160a01b03838116911614155b1561045f5760056104153460046130ac565b61041f91906130e1565b9050801561045f576040516001600160a01b0383169082156108fc029083906000818181858888f1935050505015801561045d573d6000803e3d6000fd5b505b7f244af1540416a68d4d8bfd76cedf134a74cfe2ba27893219528f23f965a29ca33460405161048e91906127f0565b60405180910390a1505b50565b60007f244af1540416a68d4d8bfd76cedf134a74cfe2ba27893219528f23f965a29ca3836040516104cc91906127f0565b60405180910390a150630a85bd0160e11b5b949350505050565b60008060006060600060068681548110610502576105026130f5565b6000918252602080832060069092029091018054600182015460058301805460408051828802810188019091528181529497506001600160a01b038416966001600160401b03600160a01b90950485169693909416949193919284929084015b828210156105b157600084815260209081902060408051808201909152908401546001600160a01b0381168252600160a01b90046001600160401b031681830152825260019092019101610562565b5050505090509450945094509450509193509193565b6000600154600114156105f55760405162461bcd60e51b81526004016105ec90613127565b60405180910390fd5b600180805588600181111561060c5761060c612e3c565b14156106545760008751116106335760405162461bcd60e51b81526004016105ec90613156565b60018411156106545760405162461bcd60e51b81526004016105ec90613183565b6103e88311156106765760405162461bcd60e51b81526004016105ec906131b1565b6001600160a01b03808c16600081815260056020526040902080549092161461080b576040516301ffc9a760e01b81526001600160a01b038d16906301ffc9a7906106cc906380ac58cd60e01b906004016127bb565b60206040518083038186803b1580156106e457600080fd5b505afa925050508015610714575060408051601f3d908101601f19168201909252610711918101906131d4565b60015b6107305760405162461bcd60e51b81526004016105ec90613212565b8061074d5760405162461bcd60e51b81526004016105ec9061323f565b60048d9080600181540180825580915050600190039060005260206000200160009091909190916101000a8154816001600160a01b0302191690836001600160a01b031602179055508c8260000160006101000a8154816001600160a01b0302191690836001600160a01b031602179055507ff4c563a3ea86ff1f4275e8c207df0375a51963f2b831b7bf4da8be938d92876c8d60016004805490506107f3919061324f565b60405161080192919061326a565b60405180910390a1505b6000338c8e8b8b8f8f8d60405160200161082c989796959493929190613301565b60408051601f1981840301815291815281516020928301206000818152600286019093529120549091506001600160a01b03161561087c5760405162461bcd60e51b81526004016105ec906133a3565b8160010181908060018154018082558091505060019003906000526020600020016000909190919091505560008260020160008381526020019081526020016000209050338160000160006101000a8154816001600160a01b0302191690836001600160a01b031602179055508c8160010160006101000a8154816001600160a01b0302191690836001600160a01b031602179055508b8160010160146101000a81548160ff0219169083600181111561093857610938612e3c565b02179055508a8160010160156101000a81548160ff0219169083600181111561096357610963612e3c565b0217905550895161097d90600283019060208d0190612575565b50888160030181905550878160040160006101000a8154816001600160401b0302191690836001600160401b03160217905550868160040160106101000a8154816001600160401b0302191690836001600160401b03160217905550858160040160186101000a8154816001600160401b0302191690836001600160401b031602179055507f98294be035c742c5a68ff3c35920bf3c58cba97677569fb8bea1ae14e1e8643d8e60018560010180549050610a38919061324f565b604051610a4692919061326a565b60405180910390a1610a57856103d5565b600183810154610a67919061324f565b60026001559e9d5050505050505050505050505050565b6000546001600160a01b03163314610aa85760405162461bcd60e51b81526004016105ec906133d2565b80610c13576001600160a01b038316610b06576000546001600160a01b03166108fc8315610ad65783610ad8565b475b6040518115909202916000818181858888f19350505050158015610b00573d6000803e3d6000fd5b50610c7a565b6000546001600160a01b038085169163a9059cbb91168415610b285784610ba4565b6040516370a0823160e01b81526001600160a01b038716906370a0823190610b54903090600401612940565b60206040518083038186803b158015610b6c57600080fd5b505afa158015610b80573d6000803e3d6000fd5b505050506040513d601f19601f82011682018060405250810190610ba491906133ed565b6040518363ffffffff1660e01b8152600401610bc192919061326a565b602060405180830381600087803b158015610bdb57600080fd5b505af1158015610bef573d6000803e3d6000fd5b505050506040513d601f19601f82011682018060405250810190610b0091906131d4565b600054604051632142170760e11b81526001600160a01b03808616926342842e0e92610c479230921690869060040161340e565b600060405180830381600087803b158015610c6157600080fd5b505af1158015610c75573d6000803e3d6000fd5b505050505b826001600160a01b03167f92ccf450a286a957af52509bc1c9939d1a6a481783e142e41e2499f0bb66ebc68383604051610cb5929190613436565b60405180910390a2505050565b60015460011415610ce55760405162461bcd60e51b81526004016105ec90613127565b60018080556001600160a01b0384166000908152600560205260408120909101805484908110610d1757610d176130f5565b60009182526020808320909101546001600160a01b0380881684526005835260408085208386526002019093529190922080549293509133911614610d6e5760405162461bcd60e51b81526004016105ec90613463565b610d7960014261324f565b60048201805467ffffffffffffffff19166001600160401b03929092169190911790556040517f0ce8605ec8d34accab841235750940544385064e0942ca457ea46d4dd86a793690610dce908790879061326a565b60405180910390a1610ddf836103d5565b50506002600155505050565b60015460011415610e0e5760405162461bcd60e51b81526004016105ec90613127565b60018055855115801590610e23575084518651145b8015610e30575083518651145b610e3957600080fd5b6103e8821115610e5b5760405162461bcd60e51b81526004016105ec906131b1565b60068054600190810180835560008381529291610e779161324f565b81548110610e8757610e876130f5565b6000918252602082206006919091020180546001600160e01b0319163367ffffffffffffffff60a01b191617600160a01b6001600160401b038781169190910291909117825560018201805467ffffffffffffffff19164390921691909117905591505b8651811015611862576000600560008a8481518110610f0c57610f0c6130f5565b6020908102919091018101516001600160a01b0316825281019190915260400160009081206003810180549193506001600160401b0390911691610f4f83613473565b91906101000a8154816001600160401b0302191690836001600160401b0316021790555050600081600101898481518110610f8c57610f8c6130f5565b602002602001015181548110610fa457610fa46130f5565b90600052602060002001549050600082600201600083815260200190815260200160002090508460050160405180604001604052808d8781518110610feb57610feb6130f5565b60200260200101516001600160a01b031681526020018c8781518110611013576110136130f5565b6020908102919091018101516001600160401b03908116909252835460018101855560009485528185208451910180549490920151909216600160a01b026001600160e01b03199093166001600160a01b039092169190911791909117905589518a9086908110611086576110866130f5565b6020026020010151905060008151116110b15760405162461bcd60e51b81526004016105ec90613156565b60018201546001600160a01b031615806110d7575060018201546001600160a01b031633145b6110f35760405162461bcd60e51b81526004016105ec906134be565b60048201546001600160401b0316158061111c57506004820154426001600160401b0390911610155b6111385760405162461bcd60e51b81526004016105ec906134ec565b60008080600185810154600160a01b900460ff169081111561115c5761115c612e3c565b146111725783546001600160a01b031633611180565b835433906001600160a01b03165b90925090506000600185810154600160a81b900460ff16908111156111a7576111a7612e3c565b141561154a5760005b83518110156115445760028501546000906111cd5750600161123f565b60005b6002870154811080156111e1575081155b1561123d578660020181815481106111fb576111fb6130f5565b9060005260206000200154868481518110611218576112186130f5565b6020026020010151141561122b57600191505b80611235816134fc565b9150506111d0565b505b8061125c5760405162461bcd60e51b81526004016105ec9061352e565b875485516001600160a01b03909116906342842e0e9086908690899087908110611288576112886130f5565b60200260200101516040518463ffffffff1660e01b81526004016112ae9392919061340e565b600060405180830381600087803b1580156112c857600080fd5b505af11580156112dc573d6000803e3d6000fd5b50505050600388018054600160401b90046001600160401b031690600861130283613473565b91906101000a8154816001600160401b0302191690836001600160401b0316021790555050856003015488600401600082825461133f919061353e565b925050819055506114e98886848151811061135c5761135c6130f5565b60200260200101518c89604051806101400160405290816000820160009054906101000a90046001600160a01b03166001600160a01b03166001600160a01b031681526020016001820160009054906101000a90046001600160a01b03166001600160a01b03166001600160a01b031681526020016001820160149054906101000a900460ff1660018111156113f4576113f4612e3c565b600181111561140557611405612e3c565b81526020016001820160159054906101000a900460ff16600181111561142d5761142d612e3c565b600181111561143e5761143e612e3c565b81526020016002820180548060200260200160405190810160405280929190818152602001828054801561149157602002820191906000526020600020905b81548152602001906001019080831161147d575b5050509183525050600382015460208201526004909101546001600160401b038082166040840152600160401b820481166060840152600160801b820481166080840152600160c01b9091041660a090910152611ebb565b600486018054600160401b90046001600160401b031690600861150b83613473565b91906101000a8154816001600160401b0302191690836001600160401b031602179055505050808061153c906134fc565b9150506111b0565b50611797565b600284015483511461156e5760405162461bcd60e51b81526004016105ec90613156565b60005b60028501548110156116b857846002018181548110611592576115926130f5565b90600052602060002001548482815181106115af576115af6130f5565b6020026020010151146115d45760405162461bcd60e51b81526004016105ec9061352e565b86546002860180546001600160a01b03909216916342842e0e91869186919086908110611603576116036130f5565b90600052602060002001546040518463ffffffff1660e01b815260040161162c9392919061340e565b600060405180830381600087803b15801561164657600080fd5b505af115801561165a573d6000803e3d6000fd5b50505050600387018054600160401b90046001600160401b031690600861168083613473565b91906101000a8154816001600160401b0302191690836001600160401b031602179055505080806116b0906134fc565b915050611571565b50600484018054600160401b90046001600160401b03169060086116db83613473565b91906101000a8154816001600160401b0302191690836001600160401b03160217905550508360030154866004016000828254611718919061353e565b925050819055506117978685600201600081548110611739576117396130f5565b60009182526020918290200154604080516101408101825289546001600160a01b0390811682526001808c01549182169583019590955292938e9391928b9290840191600160a01b90910460ff16908111156113f4576113f4612e3c565b60048401546001600160401b03600160801b82048116600160401b9092041611156117d45760405162461bcd60e51b81526004016105ec90613573565b85548d517f384bb209f0fe774478cff852a38e0ad1152d763f1a10b696be5b14437e594ef4916001600160a01b0316908f908a908110611816576118166130f5565b60200260200101516001600680549050611830919061324f565b8660405161184194939291906135c1565b60405180910390a1505050505050808061185a906134fc565b915050610eeb565b5033600090815260048201602052604090205484146118935760405162461bcd60e51b81526004016105ec9061361b565b61189c816122f4565b6118a5826103d5565b505060026001555050505050565b6000806000806000600486815481106118ce576118ce6130f5565b60009182526020808320909101546001600160a01b0316808352600590915260409091206001810154600382015460049092015492999098506001600160401b038083169850600160401b9092049091169550909350915050565b60408051610140810182526000808252602082018190529181018290526060808201839052608082015260a0810182905260c0810182905260e0810182905261010081018290526101208101919091526001600160a01b03831660009081526005602052604081206001018054849081106119a6576119a66130f5565b6000918252602080832091909101546001600160a01b038781168452600583526040808520838652600201845293849020845161014081018652815483168152600180830154938416958201959095529295509193919291840191600160a01b90910460ff1690811115611a1c57611a1c612e3c565b6001811115611a2d57611a2d612e3c565b81526020016001820160159054906101000a900460ff166001811115611a5557611a55612e3c565b6001811115611a6657611a66612e3c565b815260200160028201805480602002602001604051908101604052809291908181526020018280548015611ab957602002820191906000526020600020905b815481526020019060010190808311611aa5575b5050509183525050600382015460208201526004909101546001600160401b038082166040840152600160401b820481166060840152600160801b820481166080840152600160c01b9091041660a090910152949350505050565b6000546001600160a01b03163314611b3e5760405162461bcd60e51b81526004016105ec906133d2565b600080546040516001600160a01b03808516939216917f8be0079c531659141344cd1fd0a4f28419497f9722a3daafe3b4186f6b6457e091a3600080546001600160a01b0319166001600160a01b0392909216919091179055565b60015460011415611bbc5760405162461bcd60e51b81526004016105ec90613127565b60018080556001600160a01b038a16600090815260056020526040812090910180548a908110611bee57611bee6130f5565b60009182526020808320909101546001600160a01b03808e1684526005835260408085208386526002019093529190922080549293509133911614611c455760405162461bcd60e51b81526004016105ec90613463565b6103e8841115611c675760405162461bcd60e51b81526004016105ec906131b1565b6001810180546001600160a01b0319166001600160a01b038b161790558751611c9990600283019060208b0190612575565b506003810187905560048101805467ffffffffffffffff19166001600160401b0388161790556000851215611d9c576000611cd38661362b565b6004830154909150611cfe906001600160401b03600160401b8204811691600160801b900416613659565b6001600160401b0316816001600160401b03161115611d6657808260040160108282829054906101000a90046001600160401b0316611d3d9190613659565b92506101000a8154816001600160401b0302191690836001600160401b03160217905550611d96565b600482018054600160801b6001600160401b03600160401b8304160267ffffffffffffffff60801b199091161790555b50611de7565b848160040160108282829054906101000a90046001600160401b0316611dc29190613676565b92506101000a8154816001600160401b0302191690836001600160401b031602179055505b60018082810154600160a81b900460ff1690811115611e0857611e08612e3c565b1415611e445760048101546001600160801b9091046001600160401b03161115611e445760405162461bcd60e51b81526004016105ec90613183565b6004810180546001600160c01b0316600160c01b6001600160401b038716021790556040517fff7a3cb7fdbbff9ee856471b9844db386f8c510aaa0c1d24b34b6955fc78437290611e98908d908d9061326a565b60405180910390a1611ea9836103d5565b50506002600155505050505050505050565b6000808083604001516001811115611ed557611ed5612e3c565b14611ee257825133611ee7565b825133905b6001600160a01b0381166000908152600387016020526040902054919350915060ff16611f5e57600284018054600180820183556000928352602080842090920180546001600160a01b0319166001600160a01b0386169081179091558352600387019091526040909120805460ff191690911790555b6001600160a01b038216600090815260038501602052604090205460ff16611fd057600284018054600180820183556000928352602080842090920180546001600160a01b0319166001600160a01b0387169081179091558352600387019091526040909120805460ff191690911790555b60a08301516001600160a01b038216600090815260048601602052604081208054909190611fff9084906136a9565b9091555050600354865460a0850151604051630f84100560e21b81526001600160a01b0393841693633e1040149361203f939116918a91906004016136e5565b60006040518083038186803b15801561205757600080fd5b505afa92505050801561208c57506040513d6000823e601f3d908101601f1916820160405261208991908101906137f5565b60015b612095576122b8565b80518251146120a357600080fd5b600080866040015160018111156120bc576120bc612e3c565b146120cc578561012001516120df565b8654600160a01b90046001600160401b03165b6001600160401b0316905060005b83518110156122b35787600301600085838151811061210e5761210e6130f5565b6020908102919091018101516001600160a01b031682528101919091526040016000205460ff166121e5578760020184828151811061214f5761214f6130f5565b60209081029190910181015182546001808201855560009485529284200180546001600160a01b0319166001600160a01b039092169190911790558551909160038b01918790859081106121a5576121a56130f5565b60200260200101516001600160a01b03166001600160a01b0316815260200190815260200160002060006101000a81548160ff0219169083151502179055505b60006064838584815181106121fc576121fc6130f5565b602002602001015161220e91906130ac565b61221891906130e1565b905080896004016000878581518110612233576122336130f5565b60200260200101516001600160a01b03166001600160a01b03168152602001908152602001600020600082825461226a919061385b565b90915550506001600160a01b038716600090815260048a016020526040812080548392906122999084906136a9565b909155508291506122ab9050816134fc565b9150506120ed565b505050505b60a08301516001600160a01b0383166000908152600486016020526040812080549091906122e790849061385b565b9091555050505050505050565b60005b600282015481101561242f57600082600201828154811061231a5761231a6130f5565b60009182526020808320909101546001600160a01b03168083526003860182526040808420805460ff191690556004870190925290822054909250121561241c576002546001600160a01b0382811660009081526004860160205260409020549116906323b872dd908390309061239090613897565b6040518463ffffffff1660e01b81526004016123ae9392919061340e565b602060405180830381600087803b1580156123c857600080fd5b505af11580156123dc573d6000803e3d6000fd5b505050506040513d601f19601f8201168201806040525081019061240091906131d4565b61241c5760405162461bcd60e51b81526004016105ec906138c9565b5080612427816134fc565b9150506122f7565b5060005b6002820154811015612566576000826002018281548110612456576124566130f5565b60009182526020808320909101546001600160a01b0316808352600486019091526040822054909250131561253a576002546001600160a01b038281166000908152600480870160205260409182902054915163a9059cbb60e01b8152929093169263a9059cbb926124cc92869290910161326a565b602060405180830381600087803b1580156124e657600080fd5b505af11580156124fa573d6000803e3d6000fd5b505050506040513d601f19601f8201168201806040525081019061251e91906131d4565b61253a5760405162461bcd60e51b81526004016105ec906138f5565b6001600160a01b031660009081526004830160205260408120558061255e816134fc565b915050612433565b506104986002820160006125c0565b8280548282559060005260206000209081019282156125b0579160200282015b828111156125b0578251825591602001919060010190612595565b506125bc9291506125da565b5090565b508054600082559060005260206000209081019061049891905b5b808211156125bc57600081556001016125db565b60006001600160a01b0382165b92915050565b61260b816125ef565b811461049857600080fd5b80356125fc81612602565b8061260b565b80356125fc81612621565b634e487b7160e01b600052604160045260246000fd5b601f19601f83011681018181106001600160401b038211171561266d5761266d612632565b6040525050565b600061267f60405190565b905061268b8282612648565b919050565b60006001600160401b038211156126a9576126a9612632565b601f19601f83011660200192915050565b82818337506000910152565b60006126d96126d484612690565b612674565b9050828152602081018484840111156126f4576126f4600080fd5b6126ff8482856126ba565b509392505050565b600082601f83011261271b5761271b600080fd5b81356104de8482602086016126c6565b6000806000806080858703121561274457612744600080fd5b60006127508787612616565b945050602061276187828801612616565b935050604061277287828801612627565b92505060608501356001600160401b0381111561279157612791600080fd5b61279d87828801612707565b91505092959194509250565b6001600160e01b031981165b82525050565b602081016125fc82846127a9565b6000602082840312156127de576127de600080fd5b60006104de8484612616565b806127b5565b602081016125fc82846127ea565b60006020828403121561281357612813600080fd5b60006104de8484612627565b6127b5816125ef565b6001600160401b0381166127b5565b80516040830190612848848261281f565b50602082015161285b6020850182612828565b50505050565b600061286d8383612837565b505060400190565b600061287f825190565b80845260209384019383018060005b838110156128b35781516128a28882612861565b97506020830192505060010161288e565b509495945050505050565b608081016128cc828761281f565b6128d96020830186612828565b6128e66040830185612828565b81810360608301526128f88184612875565b9695505050505050565b60006001600160a01b0382166125fc565b60006125fc82612902565b60006125fc82612913565b6127b58161291e565b602081016125fc8284612929565b602081016125fc828461281f565b6002811061049857600080fd5b80356125fc8161294e565b60006001600160401b0382111561297f5761297f612632565b5060209081020190565b60006129976126d484612966565b838152905060208082019084028301858111156129b6576129b6600080fd5b835b818110156129da57806129cb8882612627565b845250602092830192016129b8565b5050509392505050565b600082601f8301126129f8576129f8600080fd5b81356104de848260208601612989565b6000806000806000806000806000806101408b8d031215612a2b57612a2b600080fd5b6000612a378d8d612616565b9a50506020612a488d828e01612616565b9950506040612a598d828e0161295b565b9850506060612a6a8d828e0161295b565b97505060808b01356001600160401b03811115612a8957612a89600080fd5b612a958d828e016129e4565b96505060a0612aa68d828e01612627565b95505060c0612ab78d828e01612627565b94505060e0612ac88d828e01612627565b935050610100612ada8d828e01612627565b925050610120612aec8d828e01612616565b9150509295989b9194979a5092959850565b602081016125fc8284612828565b600080600060608486031215612b2457612b24600080fd5b6000612b308686612616565b9350506020612b4186828701612627565b9250506040612b5286828701612627565b9150509250925092565b600080600060608486031215612b7457612b74600080fd5b6000612b808686612616565b9350506020612b9186828701612627565b9250506040612b5286828701612616565b6000612bb06126d484612966565b83815290506020808201908402830185811115612bcf57612bcf600080fd5b835b818110156129da5780612be48882612616565b84525060209283019201612bd1565b600082601f830112612c0757612c07600080fd5b81356104de848260208601612ba2565b6000612c256126d484612966565b83815290506020808201908402830185811115612c4457612c44600080fd5b835b818110156129da5780356001600160401b03811115612c6757612c67600080fd5b808601612c7489826129e4565b8552505060209283019201612c46565b600082601f830112612c9857612c98600080fd5b81356104de848260208601612c17565b60008060008060008060c08789031215612cc457612cc4600080fd5b86356001600160401b03811115612cdd57612cdd600080fd5b612ce989828a01612bf3565b96505060208701356001600160401b03811115612d0857612d08600080fd5b612d1489828a016129e4565b95505060408701356001600160401b03811115612d3357612d33600080fd5b612d3f89828a01612c84565b9450506060612d5089828a01612627565b9350506080612d6189828a01612627565b92505060a0612d7289828a01612616565b9150509295509295509295565b60808101612d8d828761281f565b612d9a6020830186612828565b612da76040830185612828565b612db460608301846127ea565b95945050505050565b60a08101612dcb828861281f565b612dd86020830187612828565b612de56040830186612828565b612df26060830185612828565b6128f860808301846127ea565b60008060408385031215612e1557612e15600080fd5b6000612e218585612616565b9250506020612e3285828601612627565b9150509250929050565b634e487b7160e01b600052602160045260246000fd5b6002811061049857610498612e3c565b8061268b81612e52565b60006125fc82612e62565b6127b581612e6c565b6000612e8c83836127ea565b505060200190565b6000612e9e825190565b80845260209384019383018060005b838110156128b3578151612ec18882612e80565b975060208301925050600101612ead565b8051600090610140840190612ee7858261281f565b506020830151612efa602086018261281f565b506040830151612f0d6040860182612e77565b506060830151612f206060860182612e77565b5060808301518482036080860152612f388282612e94565b91505060a0830151612f4d60a08601826127ea565b5060c0830151612f6060c0860182612828565b5060e0830151612f7360e0860182612828565b50610100830151612f88610100860182612828565b506101208301516126ff610120860182612828565b60208082528101612fae8184612ed2565b9392505050565b60008060008060008060008060006101208a8c031215612fd757612fd7600080fd5b6000612fe38c8c612616565b9950506020612ff48c828d01612627565b98505060406130058c828d01612616565b97505060608a01356001600160401b0381111561302457613024600080fd5b6130308c828d016129e4565b96505060806130418c828d01612627565b95505060a06130528c828d01612627565b94505060c06130638c828d01612627565b93505060e06130748c828d01612627565b9250506101006130868c828d01612616565b9150509295985092959850929598565b634e487b7160e01b600052601160045260246000fd5b60008160001904831182151516156130c6576130c6613096565b500290565b634e487b7160e01b600052601260045260246000fd5b6000826130f0576130f06130cb565b500490565b634e487b7160e01b600052603260045260246000fd5b60028152600060208201614e4f60f01b815291505b5060200190565b602080825281016125fc8161310b565b6008815260006020820167546f6b656e49647360c01b81529150613120565b602080825281016125fc81613137565b600681526000602082016514185c98d95b60d21b81529150613120565b602080825281016125fc81613166565b6007815260006020820166526f79616c747960c81b81529150613120565b602080825281016125fc81613193565b80151561260b565b80516125fc816131c1565b6000602082840312156131e9576131e9600080fd5b60006104de84846131c9565b600681526000602082016545524331363560d01b81529150613120565b602080825281016125fc816131f5565b600681526000602082016545524337323160d01b81529150613120565b602080825281016125fc81613222565b6000825b92508282101561326557613265613096565b500390565b60408101613278828561281f565b612fae60208301846127ea565b60006125fc8260601b90565b60006125fc82613285565b6127b56132a8826125ef565b613291565b60006132b7825190565b602083018060005b838110156128b35781516132d38882612e80565b9750602083019250506001016132bf565b60006125fc8260f81b90565b6127b56132fc82612e6c565b6132e4565b600061330d828b61329c565b60148201915061331d828a61329c565b60148201915061332d828961329c565b60148201915061333d82886132ad565b915061334982876127ea565b60208201915061335982866132f0565b60018201915061336982856132f0565b60018201915061337982846127ea565b5060200198975050505050505050565b600381526000602082016204475760ec1b81529150613120565b602080825281016125fc81613389565b60088152600060208201672737ba27bbb732b960c11b81529150613120565b602080825281016125fc816133b3565b80516125fc81612621565b60006020828403121561340257613402600080fd5b60006104de84846133e2565b6060810161341c828661281f565b613429602083018561281f565b6104de60408301846127ea565b6040810161327882856127ea565b60088152600060208201672737ba26b0b5b2b960c11b81529150613120565b602080825281016125fc81613444565b60006001600160401b03821691506001600160401b0382141561349857613498613096565b5060010190565b60088152600060208201672737ba2a30b5b2b960c11b81529150613120565b602080825281016125fc8161349f565b6007815260006020820166115e1c1a5c995960ca1b81529150613120565b602080825281016125fc816134ce565b600060001982141561349857613498613096565b6007815260006020820166151bdad95b925960ca1b81529150613120565b602080825281016125fc81613510565b6000821982111561355157613551613096565b500190565b600681526000602082016513585e1e195960d21b81529150613120565b602080825281016125fc81613556565b600061358d825190565b80845260209384019383018060005b838110156128b35781516135b08882612e80565b97506020830192505060010161359c565b608081016135cf828761281f565b6135dc60208301866127ea565b6135e960408301856127ea565b81810360608301526128f88184613583565b600981526000602082016813995d105b5bdd5b9d60ba1b81529150613120565b602080825281016125fc816135fb565b60006136378260070b90565b9150677fffffffffffffff1982141561365257613652613096565b5060000390565b60006001600160401b03821691506001600160401b038316613253565b60006001600160401b03821691506001600160401b0383169250826001600160401b030382111561355157613551613096565b600082600160ff1b018212600084121516156136c7576136c7613096565b826001600160ff1b0301821360008412161561326557613265613096565b606081016136f3828661281f565b61342960208301856127ea565b80516125fc81612602565b60006137196126d484612966565b8381529050602080820190840283018581111561373857613738600080fd5b835b818110156129da578061374d8882613700565b8452506020928301920161373a565b600082601f83011261377057613770600080fd5b81516104de84826020860161370b565b600061378e6126d484612966565b838152905060208082019084028301858111156137ad576137ad600080fd5b835b818110156129da57806137c288826133e2565b845250602092830192016137af565b600082601f8301126137e5576137e5600080fd5b81516104de848260208601613780565b6000806040838503121561380b5761380b600080fd5b82516001600160401b0381111561382457613824600080fd5b6138308582860161375c565b92505060208301516001600160401b0381111561384f5761384f600080fd5b612e32858286016137d1565b6000816001600160ff1b030383136000831215161561387c5761387c613096565b81600160ff1b03831260008312161561355157613551613096565b6000600160ff1b82141561365257613652613096565b600581526000602082016405aaecae8d60db1b81529150613120565b602080825281016125fc816138ad565b6005815260006020820164056aecae8d60db1b81529150613120565b602080825281016125fc816138d956fea164736f6c6343000809000a",
  "linkReferences": {},
  "deployedLinkReferences": {}
}