{
  "_format": "hh-sol-artifact-1",
  "contractName": "NixHelper",
  "sourceName": "contracts/Nix.sol",
  "abi": [
    {
      "inputs": [
        {
          "internalType": "contract Nix",
          "name": "_nix",
          "type": "address"
        }
      ],
      "stateMutability": "nonpayable",
      "type": "constructor"
    },
    {
      "inputs": [
        {
          "internalType": "address",
          "name": "token",
          "type": "address"
        },
        {
          "internalType": "uint256[]",
          "name": "orderIndices",
          "type": "uint256[]"
        }
      ],
      "name": "getOrders",
      "outputs": [
        {
          "internalType": "address[]",
          "name": "makers",
          "type": "address[]"
        },
        {
          "internalType": "address[]",
          "name": "takers",
          "type": "address[]"
        },
        {
          "internalType": "uint256[][]",
          "name": "tokenIds",
          "type": "uint256[][]"
        },
        {
          "internalType": "uint256[]",
          "name": "prices",
          "type": "uint256[]"
        },
        {
          "internalType": "uint256[7][]",
          "name": "data",
          "type": "uint256[7][]"
        }
      ],
      "stateMutability": "view",
      "type": "function"
    },
    {
      "inputs": [
        {
          "internalType": "uint256[]",
          "name": "tokensIndices",
          "type": "uint256[]"
        }
      ],
      "name": "getTokens",
      "outputs": [
        {
          "internalType": "address[]",
          "name": "tokens",
          "type": "address[]"
        },
        {
          "internalType": "uint256[]",
          "name": "ordersLengthList",
          "type": "uint256[]"
        },
        {
          "internalType": "uint256[]",
          "name": "executedList",
          "type": "uint256[]"
        },
        {
          "internalType": "uint256[]",
          "name": "volumeTokenList",
          "type": "uint256[]"
        },
        {
          "internalType": "uint256[]",
          "name": "volumeWethList",
          "type": "uint256[]"
        }
      ],
      "stateMutability": "view",
      "type": "function"
    },
    {
      "inputs": [
        {
          "internalType": "uint256[]",
          "name": "tradeIndexes",
          "type": "uint256[]"
        }
      ],
      "name": "getTrades",
      "outputs": [
        {
          "internalType": "address[]",
          "name": "takers",
          "type": "address[]"
        },
        {
          "internalType": "uint256[]",
          "name": "royaltyFactors",
          "type": "uint256[]"
        },
        {
          "internalType": "uint256[]",
          "name": "blockNumbers",
          "type": "uint256[]"
        },
        {
          "components": [
            {
              "internalType": "address",
              "name": "token",
              "type": "address"
            },
            {
              "internalType": "uint64",
              "name": "orderIndex",
              "type": "uint64"
            }
          ],
          "internalType": "struct Nix.ExecutedOrder[][]",
          "name": "ordersList",
          "type": "tuple[][]"
        }
      ],
      "stateMutability": "view",
      "type": "function"
    },
    {
      "inputs": [],
      "name": "nix",
      "outputs": [
        {
          "internalType": "contract Nix",
          "name": "",
          "type": "address"
        }
      ],
      "stateMutability": "view",
      "type": "function"
    },
    {
      "inputs": [
        {
          "internalType": "address",
          "name": "token",
          "type": "address"
        },
        {
          "components": [
            {
              "internalType": "address",
              "name": "maker",
              "type": "address"
            },
            {
              "internalType": "address",
              "name": "taker",
              "type": "address"
            },
            {
              "internalType": "enum Nix.BuyOrSell",
              "name": "buyOrSell",
              "type": "uint8"
            },
            {
              "internalType": "enum Nix.AnyOrAll",
              "name": "anyOrAll",
              "type": "uint8"
            },
            {
              "internalType": "uint256[]",
              "name": "tokenIds",
              "type": "uint256[]"
            },
            {
              "internalType": "uint256",
              "name": "price",
              "type": "uint256"
            },
            {
              "internalType": "uint64",
              "name": "expiry",
              "type": "uint64"
            },
            {
              "internalType": "uint64",
              "name": "tradeCount",
              "type": "uint64"
            },
            {
              "internalType": "uint64",
              "name": "tradeMax",
              "type": "uint64"
            },
            {
              "internalType": "uint64",
              "name": "royaltyFactor",
              "type": "uint64"
            }
          ],
          "internalType": "struct Nix.Order",
          "name": "order",
          "type": "tuple"
        }
      ],
      "name": "orderStatus",
      "outputs": [
        {
          "internalType": "enum NixHelper.OrderStatus",
          "name": "",
          "type": "uint8"
        }
      ],
      "stateMutability": "view",
      "type": "function"
    },
    {
      "inputs": [],
      "name": "weth",
      "outputs": [
        {
          "internalType": "contract IERC20Partial",
          "name": "",
          "type": "address"
        }
      ],
      "stateMutability": "view",
      "type": "function"
    }
  ],
  "bytecode": "0x60a06040523480156200001157600080fd5b50604051620020ed380380620020ed83398101604081905262000034916200011e565b600080546001600160a01b0319166001600160a01b03831690811790915560408051633fc8cef360e01b81529051633fc8cef391600480820192602092909190829003018186803b1580156200008957600080fd5b505afa1580156200009e573d6000803e3d6000fd5b505050506040513d601f19601f82011682018060405250810190620000c491906200011e565b6001600160a01b0316608052506200014b565b60006001600160a01b0382165b92915050565b6000620000e482620000d7565b6200010281620000ea565b81146200010e57600080fd5b50565b8051620000e481620000f7565b600060208284031215620001355762000135600080fd5b600062000143848462000111565b949350505050565b608051611f79620001746000396000818160b901528181610e210152610edb0152611f796000f3fe608060405234801561001057600080fd5b50600436106100625760003560e01c80630efaae8d1461006757806332ba0a1e146100905780633fc8cef3146100b45780636ecd4fc2146100db5780636f9106ae146100ff578063ef8b4e9114610122575b600080fd5b60005461007a906001600160a01b031681565b6040516100879190611311565b60405180910390f35b6100a361009e366004611447565b610142565b604051610087959493929190611537565b61007a7f000000000000000000000000000000000000000000000000000000000000000081565b6100ee6100e93660046115b7565b6104d9565b60405161008795949392919061174b565b61011261010d366004611447565b610a52565b604051610087949392919061189c565b610135610130366004611a2f565b610d86565b6040516100879190611ac0565b6060806060806060600086519050806001600160401b038111156101685761016861131f565b604051908082528060200260200182016040528015610191578160200160208202803683370190505b509550806001600160401b038111156101ac576101ac61131f565b6040519080825280602002602001820160405280156101d5578160200160208202803683370190505b509450806001600160401b038111156101f0576101f061131f565b604051908082528060200260200182016040528015610219578160200160208202803683370190505b509350806001600160401b038111156102345761023461131f565b60405190808252806020026020018201604052801561025d578160200160208202803683370190505b509250806001600160401b038111156102785761027861131f565b6040519080825280602002602001820160405280156102a1578160200160208202803683370190505b50915060005b818110156104ce5760008882815181106102c3576102c3611ace565b6020026020010151905060008054906101000a90046001600160a01b03166001600160a01b031663d92fc67b6040518163ffffffff1660e01b815260040160206040518083038186803b15801561031957600080fd5b505afa15801561032d573d6000803e3d6000fd5b505050506040513d601f19601f820116820180604052508101906103519190611aef565b8110156104bb5760008054604051631c96a19760e31b815282918291829182916001600160a01b039091169063e4b50cb890610391908990600401611b10565b60a06040518083038186803b1580156103a957600080fd5b505afa1580156103bd573d6000803e3d6000fd5b505050506040513d601f19601f820116820180604052508101906103e19190611b34565b94509450945094509450848d88815181106103fe576103fe611ace565b60200260200101906001600160a01b031690816001600160a01b031681525050836001600160401b03168c888151811061043a5761043a611ace565b602002602001018181525050826001600160401b03168b888151811061046257610462611ace565b602002602001018181525050816001600160401b03168a888151811061048a5761048a611ace565b602002602001018181525050808988815181106104a9576104a9611ace565b60200260200101818152505050505050505b50806104c681611bc2565b9150506102a7565b505091939590929450565b6060806060806060600086519050806001600160401b038111156104ff576104ff61131f565b604051908082528060200260200182016040528015610528578160200160208202803683370190505b509550806001600160401b038111156105435761054361131f565b60405190808252806020026020018201604052801561056c578160200160208202803683370190505b509450806001600160401b038111156105875761058761131f565b6040519080825280602002602001820160405280156105ba57816020015b60608152602001906001900390816105a55790505b509350806001600160401b038111156105d5576105d561131f565b6040519080825280602002602001820160405280156105fe578160200160208202803683370190505b509250806001600160401b038111156106195761061961131f565b60405190808252806020026020018201604052801561065257816020015b61063f6112bd565b8152602001906001900390816106375790505b506000805460405163055ac03960e31b815292945090916001600160a01b0390911690632ad601c890610689908c90600401611bdd565b60206040518083038186803b1580156106a157600080fd5b505afa1580156106b5573d6000803e3d6000fd5b505050506040513d601f19601f820116820180604052508101906106d99190611aef565b905060005b82811015610a455760008982815181106106fa576106fa611ace565b6020026020010151905082811015610a32576000805460405163edb2584160e01b81526001600160a01b039091169063edb258419061073f908f908690600401611beb565b60006040518083038186803b15801561075757600080fd5b505afa15801561076b573d6000803e3d6000fd5b505050506040513d6000823e601f3d908101601f191682016040526107939190810190611d83565b905080600001518a84815181106107ac576107ac611ace565b60200260200101906001600160a01b031690816001600160a01b03168152505080602001518984815181106107e3576107e3611ace565b60200260200101906001600160a01b031690816001600160a01b031681525050806080015188848151811061081a5761081a611ace565b60200260200101819052508060a0015187848151811061083c5761083c611ace565b6020026020010181815250508060400151600181111561085e5761085e611a7c565b86848151811061087057610870611ace565b602002602001015160006007811061088a5761088a611ace565b6020020152606081015160018111156108a5576108a5611a7c565b8684815181106108b7576108b7611ace565b60200260200101516001600781106108d1576108d1611ace565b6020020181815250508060c001516001600160401b03168684815181106108fa576108fa611ace565b602002602001015160026007811061091457610914611ace565b6020020181815250508060e001516001600160401b031686848151811061093d5761093d611ace565b602002602001015160036007811061095757610957611ace565b6020020181815250508061010001516001600160401b031686848151811061098157610981611ace565b602002602001015160046007811061099b5761099b611ace565b6020020181815250508061012001516001600160401b03168684815181106109c5576109c5611ace565b60200260200101516005600781106109df576109df611ace565b60200201526109ee8c82610d86565b60078111156109ff576109ff611a7c565b868481518110610a1157610a11611ace565b6020026020010151600660078110610a2b57610a2b611ace565b6020020152505b5080610a3d81611bc2565b9150506106de565b5050509295509295909350565b606080606080600085519050806001600160401b03811115610a7657610a7661131f565b604051908082528060200260200182016040528015610a9f578160200160208202803683370190505b509450806001600160401b03811115610aba57610aba61131f565b604051908082528060200260200182016040528015610ae3578160200160208202803683370190505b509350806001600160401b03811115610afe57610afe61131f565b604051908082528060200260200182016040528015610b27578160200160208202803683370190505b509250806001600160401b03811115610b4257610b4261131f565b604051908082528060200260200182016040528015610b7557816020015b6060815260200190600190039081610b605790505b50915060008060009054906101000a90046001600160a01b03166001600160a01b031663dc12ceea6040518163ffffffff1660e01b815260040160206040518083038186803b158015610bc757600080fd5b505afa158015610bdb573d6000803e3d6000fd5b505050506040513d601f19601f82011682018060405250810190610bff9190611aef565b905060005b82811015610d7c576000888281518110610c2057610c20611ace565b6020026020010151905082811015610d695760008054604051632db25e0560e01b81528291829182916001600160a01b031690632db25e0590610c67908890600401611b10565b60006040518083038186803b158015610c7f57600080fd5b505afa158015610c93573d6000803e3d6000fd5b505050506040513d6000823e601f3d908101601f19168201604052610cbb9190810190611e7e565b9350935093509350838c8781518110610cd657610cd6611ace565b60200260200101906001600160a01b031690816001600160a01b031681525050826001600160401b03168b8781518110610d1257610d12611ace565b602002602001018181525050816001600160401b03168a8781518110610d3a57610d3a611ace565b60200260200101818152505080898781518110610d5957610d59611ace565b6020026020010181905250505050505b5080610d7481611bc2565b915050610c04565b5050509193509193565b6000808260c001516001600160401b0316118015610db05750428260c001516001600160401b0316105b15610dbd575060016112b7565b8161010001516001600160401b03168260e001516001600160401b031610610de7575060026112b7565b600082604001516001811115610dff57610dff611a7c565b1415610f825781516040516370a0823160e01b81526000916001600160a01b037f000000000000000000000000000000000000000000000000000000000000000016916370a0823191610e5491600401611bdd565b60206040518083038186803b158015610e6c57600080fd5b505afa158015610e80573d6000803e3d6000fd5b505050506040513d601f19601f82011682018060405250810190610ea49190611aef565b90508260a00151811015610ebc5760039150506112b7565b825160008054604051636eb1769f60e11b815291926001600160a01b037f000000000000000000000000000000000000000000000000000000000000000081169363dd62ed3e93610f1293921690600401611efc565b60206040518083038186803b158015610f2a57600080fd5b505afa158015610f3e573d6000803e3d6000fd5b505050506040513d601f19601f82011682018060405250810190610f629190611aef565b90508360a00151811015610f7b576004925050506112b7565b50506112b3565b815160005460405163e985e9c560e01b81526001600160a01b038087169363e985e9c593610fb69391921690600401611efc565b60206040518083038186803b158015610fce57600080fd5b505afa925050508015610ffe575060408051601f3d908101601f19168201909252610ffb91810190611f2a565b60015b61100a575060076112b7565b806110195760069150506112b7565b5060008260600151600181111561103257611032611a7c565b14156111d0576080820151516110d85781516040516370a0823160e01b81526001600160a01b038516916370a082319161106f9190600401611bdd565b60206040518083038186803b15801561108757600080fd5b505afa9250505080156110b7575060408051601f3d908101601f191682019092526110b491810190611aef565b60015b6110c3575060076112b7565b806110d25760059150506112b7565b506112b3565b6000805b836080015151811080156110ee575081155b156111c057846001600160a01b0316636352211e8560800151838151811061111857611118611ace565b60200260200101516040518263ffffffff1660e01b815260040161113c9190611b10565b60206040518083038186803b15801561115457600080fd5b505afa925050508015611184575060408051601f3d908101601f1916820190925261118191810190611f4b565b60015b611193576007925050506112b7565b84516001600160a01b03828116911614156111ad57600192505b50806111b881611bc2565b9150506110dc565b50806110d25760059150506112b7565b60005b8260800151518110156112b157836001600160a01b0316636352211e8460800151838151811061120557611205611ace565b60200260200101516040518263ffffffff1660e01b81526004016112299190611b10565b60206040518083038186803b15801561124157600080fd5b505afa925050508015611271575060408051601f3d908101601f1916820190925261126e91810190611f4b565b60015b61127f5760079150506112b7565b83516001600160a01b0382811691161461129e576005925050506112b7565b50806112a981611bc2565b9150506111d3565b505b5060005b92915050565b6040518060e001604052806007906020820280368337509192915050565b60006001600160a01b0382166112b7565b60006112b7826112db565b60006112b7826112ec565b61130b816112f7565b82525050565b602081016112b78284611302565b634e487b7160e01b600052604160045260246000fd5b601f19601f83011681018181106001600160401b038211171561135a5761135a61131f565b6040525050565b600061136c60405190565b90506113788282611335565b919050565b60006001600160401b038211156113965761139661131f565b5060209081020190565b805b81146113ad57600080fd5b50565b80356112b7816113a0565b60006113ce6113c98461137d565b611361565b838152905060208082019084028301858111156113ed576113ed600080fd5b835b81811015611411578061140288826113b0565b845250602092830192016113ef565b5050509392505050565b600082601f83011261142f5761142f600080fd5b813561143f8482602086016113bb565b949350505050565b60006020828403121561145c5761145c600080fd5b81356001600160401b0381111561147557611475600080fd5b61143f8482850161141b565b61130b816112db565b60006114968383611481565b505060200190565b60006114a8825190565b80845260209384019383018060005b838110156114dc5781516114cb888261148a565b9750602083019250506001016114b7565b509495945050505050565b8061130b565b600061149683836114e7565b6000611503825190565b80845260209384019383018060005b838110156114dc57815161152688826114ed565b975060208301925050600101611512565b60a08082528101611548818861149e565b9050818103602083015261155c81876114f9565b9050818103604083015261157081866114f9565b9050818103606083015261158481856114f9565b9050818103608083015261159881846114f9565b979650505050505050565b6113a2816112db565b80356112b7816115a3565b600080604083850312156115cd576115cd600080fd5b60006115d985856115ac565b92505060208301356001600160401b038111156115f8576115f8600080fd5b6116048582860161141b565b9150509250929050565b6000611618825190565b80845260209384019383018060005b838110156114dc57815161163b88826114ed565b975060208301925050600101611627565b6000611658838361160e565b9392505050565b6000611669825190565b808452602084019350836020820285016116838560200190565b8060005b858110156116b857848403895281516116a0858261164c565b94506020830160209a909a0199925050600101611687565b5091979650505050505050565b6007818060005b838110156116f15781516116e087826114ed565b9650602083019250506001016116cc565b505050505050565b600061170583836116c5565b505060e00190565b6000611717825190565b80845260209384019383018060005b838110156114dc57815161173a88826116f9565b975060208301925050600101611726565b60a0808252810161175c818861149e565b90508181036020830152611770818761149e565b90508181036040830152611784818661165f565b9050818103606083015261179881856114f9565b90508181036080830152611598818461170d565b6001600160401b03811661130b565b805160408301906117cc8482611481565b5060208201516117df60208501826117ac565b50505050565b60006117f183836117bb565b505060400190565b6000611803825190565b80845260209384019383018060005b838110156114dc57815161182688826117e5565b975060208301925050600101611812565b600061165883836117f9565b600061184d825190565b808452602084019350836020820285016118678560200190565b8060005b858110156116b857848403895281516118848582611837565b94506020830160209a909a019992505060010161186b565b608080825281016118ad818761149e565b905081810360208301526118c181866114f9565b905081810360408301526118d581856114f9565b905081810360608301526118e98184611843565b9695505050505050565b600281106113ad57600080fd5b80356112b7816118f3565b6001600160401b0381166113a2565b80356112b78161190b565b6000610140828403121561193b5761193b600080fd5b611946610140611361565b9050600061195484846115ac565b8252506020611965848483016115ac565b602083015250604061197984828501611900565b604083015250606061198d84828501611900565b60608301525060808201356001600160401b038111156119af576119af600080fd5b6119bb8482850161141b565b60808301525060a06119cf848285016113b0565b60a08301525060c06119e38482850161191a565b60c08301525060e06119f78482850161191a565b60e083015250610100611a0c8482850161191a565b61010083015250610120611a228482850161191a565b6101208301525092915050565b60008060408385031215611a4557611a45600080fd5b6000611a5185856115ac565b92505060208301356001600160401b03811115611a7057611a70600080fd5b61160485828601611925565b634e487b7160e01b600052602160045260246000fd5b600881106113ad576113ad611a7c565b8061137881611a92565b60006112b782611aa2565b61130b81611aac565b602081016112b78284611ab7565b634e487b7160e01b600052603260045260246000fd5b80516112b7816113a0565b600060208284031215611b0457611b04600080fd5b600061143f8484611ae4565b602081016112b782846114e7565b80516112b7816115a3565b80516112b78161190b565b600080600080600060a08688031215611b4f57611b4f600080fd5b6000611b5b8888611b1e565b9550506020611b6c88828901611b29565b9450506040611b7d88828901611b29565b9350506060611b8e88828901611b29565b9250506080611b9f88828901611ae4565b9150509295509295909350565b634e487b7160e01b600052601160045260246000fd5b6000600019821415611bd657611bd6611bac565b5060010190565b602081016112b78284611481565b60408101611bf98285611481565b61165860208301846114e7565b80516112b7816118f3565b6000611c1f6113c98461137d565b83815290506020808201908402830185811115611c3e57611c3e600080fd5b835b818110156114115780611c538882611ae4565b84525060209283019201611c40565b600082601f830112611c7657611c76600080fd5b815161143f848260208601611c11565b60006101408284031215611c9c57611c9c600080fd5b611ca7610140611361565b90506000611cb58484611b1e565b8252506020611cc684848301611b1e565b6020830152506040611cda84828501611c06565b6040830152506060611cee84828501611c06565b60608301525060808201516001600160401b03811115611d1057611d10600080fd5b611d1c84828501611c62565b60808301525060a0611d3084828501611ae4565b60a08301525060c0611d4484828501611b29565b60c08301525060e0611d5884828501611b29565b60e083015250610100611d6d84828501611b29565b61010083015250610120611a2284828501611b29565b600060208284031215611d9857611d98600080fd5b81516001600160401b03811115611db157611db1600080fd5b61143f84828501611c86565b600060408284031215611dd257611dd2600080fd5b611ddc6040611361565b90506000611dea8484611b1e565b8252506020611dfb84848301611b29565b60208301525092915050565b6000611e156113c98461137d565b83815290506020810160408402830185811115611e3457611e34600080fd5b835b818110156114115780611e498882611dbd565b845250602090920191604001611e36565b600082601f830112611e6e57611e6e600080fd5b815161143f848260208601611e07565b60008060008060808587031215611e9757611e97600080fd5b6000611ea38787611b1e565b9450506020611eb487828801611b29565b9350506040611ec587828801611b29565b92505060608501516001600160401b03811115611ee457611ee4600080fd5b611ef087828801611e5a565b91505092959194509250565b60408101611f0a8285611481565b6116586020830184611481565b8015156113a2565b80516112b781611f17565b600060208284031215611f3f57611f3f600080fd5b600061143f8484611f1f565b600060208284031215611f6057611f60600080fd5b600061143f8484611b1e56fea164736f6c6343000809000a",
  "linkReferences": {},
  "deployedLinkReferences": {}
}